:040000006BEF00F0B2
:10000800F2A408D0F2941580030ED56EEE0ED66ECB
:06001800850ED76E1100F9
:10001E001ED0FC0E8C6E57D0600E8C6E54D0DA0E45
:10002E008C6E51D0F20E8C6E4ED0660E8C6E4BD006
:10003E00B60E8C6E48D0BE0E8C6E45D0E00E8C6E19
:10004E0042D0FE0E8C6E3FD0F60E8C6E3CD0000E63
:10005E001B1802E1000E1A18DCE0000E1B1802E15C
:10006E00010E1A18D9E0000E1B1802E1020E1A1822
:10007E00D6E0000E1B1802E1030E1A18D3E0000E94
:10008E001B1802E1040E1A18D0E0000E1B1802E134
:10009E00050E1A18CDE0000E1B1802E1060E1A18F6
:1000AE00CAE0000E1B1802E1070E1A18C7E0000E78
:1000BE001B1802E1080E1A18C4E0000E1B1802E10C
:0800CE00090E1A18C1E012002E
:1000D6000F0EC16EE00EF26E030E936E956A8C6A79
:1000E600030ED56EEE0ED66E850ED76E166A176A9D
:1000F600186A196A800E1918006E800E005C08E1F5
:10010600000E185C05E1000E175C02E10A0E165C93
:1001160011E216C01AF017C01BF07EDFD58E1590BF
:1001260015B001D0FDD7010E1626000E1722182293
:100136001922E0D781B024D0166A176A186A196A9C
:10014600800E1918006E800E005C08E1000E185C27
:1001560005E1000E175C02E10A0E165C11E216C0FC
:100166001AF017C01BF058DFD58E159015B001D0C8
:10017600FDD7010E1626000E172218221922E0D7E7
:1001860081B226D0166A176A186A196A800E19187B
:10019600006E800E005C08E1000E185C05E1000EA2
:1001A600175C02E10A0E165C13E216C01AF017C0BD
:1001B6001BF032DF050ED56ED58E159015B001D029
:1001C600FDD7010E1626000E172218221922DED799
:0401D600B1D7FFD7C7
:020000040030CA
:0E000000000C1F1EFF8381FF0FC00FE00F409A
:00000001FF
