:040000006BEF00F0B2
:10000800F2A408D0F2941580030ED56EEE0ED66ECB
:06001800850ED76E1100F9
:10001E001ED0FC0E8C6E57D0600E8C6E54D0DA0E45
:10002E008C6E51D0F20E8C6E4ED0660E8C6E4BD006
:10003E00B60E8C6E48D0BE0E8C6E45D0E00E8C6E19
:10004E0042D0FE0E8C6E3FD0F60E8C6E3CD0000E63
:10005E001B1802E1000E1A18DCE0000E1B1802E15C
:10006E00010E1A18D9E0000E1B1802E1020E1A1822
:10007E00D6E0000E1B1802E1030E1A18D3E0000E94
:10008E001B1802E1040E1A18D0E0000E1B1802E134
:10009E00050E1A18CDE0000E1B1802E1060E1A18F6
:1000AE00CAE0000E1B1802E1070E1A18C7E0000E78
:1000BE001B1802E1080E1A18C4E0000E1B1802E10C
:0800CE00090E1A18C1E012002E
:1000D6000F0EC16EE00EF26E030E936E956A8C6A79
:1000E600030ED56EEE0ED66E850ED76E81B202D099
:1000F600159401D0158481B002D0159201D01582D5
:1001060015B433D0166A176A186A196A800E191858
:10011600006E800E005C08E1000E185C05E1000E22
:10012600175C02E10A0E165C1FE215A205D081B02B
:1001360003D01584159218D016C01AF017C01BF0FC
:100146006BDFD58E159015B008D015A205D081B0FD
:1001560003D01584159201D0F6D7010E1626000E8F
:10016600172218221922D2D7CBD715B235D0166A44
:10017600176A186A196A800E1918006E800E005CDC
:1001860008E1000E185C05E1000E175C02E10A0E9C
:10019600165C21E215A405D081B203D01594158210
:1001A6001AD016C01AF017C01BF036DF050ED56E32
:1001B600D58E159015B008D015A405D081B203D000
:1001C6001594158201D0F6D7010E1626000E1722B9
:0C01D60018221922D0D7C9D789D7FFD72B
:020000040030CA
:0E000000000C1F1EFF8381FF0FC00FE00F409A
:00000001FF
