:040000006BEF00F0B2
:10000800F2A408D0F2941580030ED56EEE0ED66ECB
:06001800850ED76E1100F9
:10001E001ED0FC0E8C6E57D0600E8C6E54D0DA0E45
:10002E008C6E51D0F20E8C6E4ED0660E8C6E4BD006
:10003E00B60E8C6E48D0BE0E8C6E45D0E00E8C6E19
:10004E0042D0FE0E8C6E3FD0F60E8C6E3CD0000E63
:10005E001B1802E1000E1A18DCE0000E1B1802E15C
:10006E00010E1A18D9E0000E1B1802E1020E1A1822
:10007E00D6E0000E1B1802E1030E1A18D3E0000E94
:10008E001B1802E1040E1A18D0E0000E1B1802E134
:10009E00050E1A18CDE0000E1B1802E1060E1A18F6
:1000AE00CAE0000E1B1802E1070E1A18C7E0000E78
:1000BE001B1802E1080E1A18C4E0000E1B1802E10C
:0800CE00090E1A18C1E012002E
:1000D6000F0EC16EE00EF26E030E936E956A8C6A79
:1000E600030ED56EEE0ED66E850ED76E81A209D0A2
:1000F60081A007D0166A176A186A196A1A6A1B6AF3
:100106008BDF81B226D0800E006E800E1918005C3F
:1001160008E11850000805E11750000802E11650E2
:10012600090807E2166A176A186A196A1A6A1B6AC0
:1001360073DF16C01AF017C01BF06EDF010E16260D
:10014600000E172218221922D58E159015B001D04F
:10015600FDD781B028D0800E006E800E1918005C85
:1001660008E11850000805E11750000802E1165092
:10017600090807E2166A176A186A196A1A6A1B6A70
:100186004BDF16C01AF017C01BF046DF010E16260D
:10019600000E172218221922050ED56ED58E15903F
:0A01A60015B001D0FDD7A2D7FFD796
:020000040030CA
:0E000000000C1F1EFF8381FF0FC00FE00F409A
:00000001FF
